{
    "contractName": "NFTCreator",
    "abi": [
        {
            "inputs": [
                {
                    "internalType": "string",
                    "name": "name",
                    "type": "string"
                },
                {
                    "internalType": "string",
                    "name": "symbol",
                    "type": "string"
                },
                {
                    "internalType": "string",
                    "name": "memo",
                    "type": "string"
                },
                {
                    "internalType": "int64",
                    "name": "maxSupply",
                    "type": "int64"
                },
                {
                    "internalType": "int64",
                    "name": "autoRenewPeriod",
                    "type": "int64"
                }
            ],
            "name": "createNft",
            "outputs": [
                {
                    "internalType": "address",
                    "name": "",
                    "type": "address"
                }
            ],
            "stateMutability": "payable",
            "type": "function"
        },
        {
            "inputs": [
                {
                    "internalType": "address",
                    "name": "token",
                    "type": "address"
                },
                {
                    "internalType": "address",
                    "name": "from",
                    "type": "address"
                },
                {
                    "internalType": "address",
                    "name": "to",
                    "type": "address"
                },
                {
                    "internalType": "uint256",
                    "name": "amount",
                    "type": "uint256"
                }
            ],
            "name": "delegateTransferFrom",
            "outputs": [
                {
                    "internalType": "int64",
                    "name": "responseCode",
                    "type": "int64"
                }
            ],
            "stateMutability": "nonpayable",
            "type": "function"
        },
        {
            "inputs": [
                {
                    "internalType": "address",
                    "name": "token",
                    "type": "address"
                },
                {
                    "internalType": "address",
                    "name": "from",
                    "type": "address"
                },
                {
                    "internalType": "address",
                    "name": "to",
                    "type": "address"
                },
                {
                    "internalType": "uint256",
                    "name": "serialNumber",
                    "type": "uint256"
                }
            ],
            "name": "delegateTransferFromNFT",
            "outputs": [
                {
                    "internalType": "int64",
                    "name": "responseCode",
                    "type": "int64"
                }
            ],
            "stateMutability": "nonpayable",
            "type": "function"
        },
        {
            "inputs": [
                {
                    "internalType": "address",
                    "name": "token",
                    "type": "address"
                },
                {
                    "internalType": "bytes[]",
                    "name": "metadata",
                    "type": "bytes[]"
                }
            ],
            "name": "mintNft",
            "outputs": [
                {
                    "internalType": "int64",
                    "name": "",
                    "type": "int64"
                }
            ],
            "stateMutability": "nonpayable",
            "type": "function"
        },
        {
            "inputs": [
                {
                    "internalType": "address",
                    "name": "token",
                    "type": "address"
                },
                {
                    "internalType": "address",
                    "name": "from",
                    "type": "address"
                },
                {
                    "internalType": "address",
                    "name": "to",
                    "type": "address"
                },
                {
                    "internalType": "uint256",
                    "name": "amount",
                    "type": "uint256"
                }
            ],
            "name": "transferFrom",
            "outputs": [
                {
                    "internalType": "int64",
                    "name": "responseCode",
                    "type": "int64"
                }
            ],
            "stateMutability": "nonpayable",
            "type": "function"
        },
        {
            "inputs": [
                {
                    "internalType": "address",
                    "name": "token",
                    "type": "address"
                },
                {
                    "internalType": "address",
                    "name": "from",
                    "type": "address"
                },
                {
                    "internalType": "address",
                    "name": "to",
                    "type": "address"
                },
                {
                    "internalType": "uint256",
                    "name": "serialNumber",
                    "type": "uint256"
                }
            ],
            "name": "transferFromNFT",
            "outputs": [
                {
                    "internalType": "int64",
                    "name": "responseCode",
                    "type": "int64"
                }
            ],
            "stateMutability": "nonpayable",
            "type": "function"
        },
        {
            "inputs": [
                {
                    "internalType": "address",
                    "name": "token",
                    "type": "address"
                },
                {
                    "internalType": "address",
                    "name": "receiver",
                    "type": "address"
                },
                {
                    "internalType": "int64",
                    "name": "serial",
                    "type": "int64"
                }
            ],
            "name": "transferNft",
            "outputs": [
                {
                    "internalType": "int256",
                    "name": "",
                    "type": "int256"
                }
            ],
            "stateMutability": "nonpayable",
            "type": "function"
        }
    ],
    "bytecode": "608060405234801561001057600080fd5b50600160208181527fa6eef7e35abe7026729641147f7915573c7e97b47efa546f5f6e3230263bcb499190915560027fcc69885fda6bcc1a4ace058b4a62bf5e179ea78fd58a1ccd71c22cc9b688792f5560047fd9d16d34ffb15ba3a3d852f0d403e2ce1d691fb54de27ac87cd2f993f3ec330f5560087f7dfe757ecd65cbd7922a9c0161e935dd7fdbcc0e999689c7d31633896b1fc60b5560107fedc95719e9a3b28dd8e80877cb5880a9be7de1a13fc8b05e7999683b6b567643557fe2689cd4a84e23ad2f564004f1c9013e9589d260bde6380aba3ca7e09e4df40c55600660005260407f8f331abe73332f95a25873e8b430885974c0409691f89d643119a11623a7924a5561120c806101276000396000f3fe6080604052600436106100705760003560e01c806382b562aa1161004e57806382b562aa146100ed5780639b23d3d91461011b578063b6c907a61461013b578063eac6f3fe1461016657600080fd5b80630a284cb61461007557806311e1fc07146100ad57806315dacbea146100cd575b600080fd5b34801561008157600080fd5b50610095610090366004610b35565b610186565b60405160079190910b81526020015b60405180910390f35b3480156100b957600080fd5b506100956100c8366004610c16565b610224565b3480156100d957600080fd5b506100956100e8366004610c16565b610305565b3480156100f957600080fd5b5061010d610108366004610c76565b6103b0565b6040519081526020016100a4565b34801561012757600080fd5b50610095610136366004610c16565b610433565b61014e610149366004610ce8565b610463565b6040516001600160a01b0390911681526020016100a4565b34801561017257600080fd5b50610095610181366004610c16565b6105b5565b6000806000610197856000866105e5565b9250509150601660030b82146101fe5760405162461bcd60e51b815260206004820152602160248201527f4661696c656420746f206d696e74206e6f6e2d66756e6769626c6520746f6b656044820152603760f91b60648201526084015b60405180910390fd5b8060008151811061021157610211610d98565b6020026020010151925050505b92915050565b60008060006101676001600160a01b0316639b23d3d960e01b888888886040516024016102549493929190610dae565b60408051601f198184030181529181526020820180516001600160e01b03166001600160e01b03199094169390931790925290516102929190610dfc565b600060405180830381855af49150503d80600081146102cd576040519150601f19603f3d011682016040523d82523d6000602084013e6102d2565b606091505b5091509150816102e35760156102f7565b808060200190518101906102f79190610e2f565b60030b979650505050505050565b60008060006101676001600160a01b03166315dacbea60e01b888888886040516024016103359493929190610dae565b60408051601f198184030181529181526020820180516001600160e01b03166001600160e01b03199094169390931790925290516103739190610dfc565b6000604051808303816000865af19150503d80600081146102cd576040519150601f19603f3d011682016040523d82523d6000602084013e6102d2565b60006103bc83856106e3565b5060006103cb853086866107b7565b90506016811461042b5760405162461bcd60e51b815260206004820152602560248201527f4661696c656420746f207472616e73666572206e6f6e2d66756e6769626c65206044820152643a37b5b2b760d91b60648201526084016101f5565b949350505050565b60008060006101676001600160a01b0316639b23d3d960e01b888888886040516024016103359493929190610dae565b604080516001808252818301909252600091829190816020015b6104856109f8565b81526020019060019003908161047d5790505090506104a760046001306107ff565b816000815181106104ba576104ba610d98565b602002602001018190525061052b60408051610120810182526060808252602080830182905260008385018190528284018390526080840181905260a0840181905260c0840181905260e0840183905284519283018552808352908201819052928101929092529061010082015290565b8781526020810187905260608101869052306040820181905260016080830152600786900b60a083015260e08201839052600060c0830152610594908560408051606081018252600081526001600160a01b0393909316602084015260079190910b9082015290565b6101008201526000806105a683610834565b9b9a5050505050505050505050565b60008060006101676001600160a01b03166315dacbea60e01b888888886040516024016102549493929190610dae565b60008060606000806101676001600160a01b031663e0f4059a60e01b89898960405160240161061693929190610e76565b60408051601f198184030181529181526020820180516001600160e01b03166001600160e01b03199094169390931790925290516106549190610dfc565b6000604051808303816000865af19150503d8060008114610691576040519150601f19603f3d011682016040523d82523d6000602084013e610696565b606091505b5091509150816106b95760408051600080825260208201909252601591906106cd565b808060200190518101906106cd9190610ef2565b60039290920b9a90995090975095505050505050565b604080516001600160a01b038481166024830152831660448083019190915282518083039091018152606490910182526020810180516001600160e01b031663248a35ef60e11b179052905160009182918291610167916107449190610dfc565b6000604051808303816000865af19150503d8060008114610781576040519150601f19603f3d011682016040523d82523d6000602084013e610786565b606091505b5091509150816107975760156107ab565b808060200190518101906107ab9190610e2f565b60030b95945050505050565b6040516001600160a01b038581166024830152848116604483015283166064820152600782900b60848201526000908190819061016790635cfc901160e01b9060a401610335565b6108076109f8565b604051806040016040528061081b86610956565b815260200161082a8585610995565b9052949350505050565b600080828061010001516000015160070b600014801561085e57506101008101516040015160070b155b15610874576101008101516276a7006040909101525b6000806101676001600160a01b03163463ea83f29360e01b8860405160240161089d9190611075565b60408051601f198184030181529181526020820180516001600160e01b03166001600160e01b03199094169390931790925290516108db9190610dfc565b60006040518083038185875af1925050503d8060008114610918576040519150601f19603f3d011682016040523d82523d6000602084013e61091d565b606091505b5091509150816109305760156000610944565b808060200190518101906109449190611189565b60039190910b97909650945050505050565b60006001600083600681111561096e5761096e6111c0565b600681111561097f5761097f6111c0565b8152602001908152602001600020549050919050565b61099d610a17565b60018360048111156109b1576109b16111c0565b036109ca576001600160a01b038216602082015261021e565b60048360048111156109de576109de6111c0565b0361021e576001600160a01b038216608082015292915050565b604051806040016040528060008152602001610a12610a17565b905290565b6040518060a0016040528060001515815260200160006001600160a01b03168152602001606081526020016060815260200160006001600160a01b031681525090565b6001600160a01b0381168114610a6f57600080fd5b50565b634e487b7160e01b600052604160045260246000fd5b604051601f8201601f1916810167ffffffffffffffff81118282101715610ab157610ab1610a72565b604052919050565b600067ffffffffffffffff821115610ad357610ad3610a72565b5060051b60200190565b600067ffffffffffffffff831115610af757610af7610a72565b610b0a601f8401601f1916602001610a88565b9050828152838383011115610b1e57600080fd5b828260208301376000602084830101529392505050565b6000806040808486031215610b4957600080fd5b8335610b5481610a5a565b925060208481013567ffffffffffffffff80821115610b7257600080fd5b818701915087601f830112610b8657600080fd5b8135610b99610b9482610ab9565b610a88565b81815260059190911b8301840190848101908a831115610bb857600080fd5b8585015b83811015610c0457803585811115610bd45760008081fd5b8601603f81018d13610be65760008081fd5b610bf68d898301358b8401610add565b845250918601918601610bbc565b50809750505050505050509250929050565b60008060008060808587031215610c2c57600080fd5b8435610c3781610a5a565b93506020850135610c4781610a5a565b92506040850135610c5781610a5a565b9396929550929360600135925050565b8060070b8114610a6f57600080fd5b600080600060608486031215610c8b57600080fd5b8335610c9681610a5a565b92506020840135610ca681610a5a565b91506040840135610cb681610c67565b809150509250925092565b600082601f830112610cd257600080fd5b610ce183833560208501610add565b9392505050565b600080600080600060a08688031215610d0057600080fd5b853567ffffffffffffffff80821115610d1857600080fd5b610d2489838a01610cc1565b96506020880135915080821115610d3a57600080fd5b610d4689838a01610cc1565b95506040880135915080821115610d5c57600080fd5b50610d6988828901610cc1565b9350506060860135610d7a81610c67565b91506080860135610d8a81610c67565b809150509295509295909350565b634e487b7160e01b600052603260045260246000fd5b6001600160a01b039485168152928416602084015292166040820152606081019190915260800190565b60005b83811015610df3578181015183820152602001610ddb565b50506000910152565b60008251610e0e818460208701610dd8565b9190910192915050565b8051600381900b8114610e2a57600080fd5b919050565b600060208284031215610e4157600080fd5b610ce182610e18565b60008151808452610e62816020860160208601610dd8565b601f01601f19169290920160200192915050565b60006060820160018060a01b038616835260208560070b818501526060604085015281855180845260808601915060808160051b870101935082870160005b82811015610ee357607f19888703018452610ed1868351610e4a565b95509284019290840190600101610eb5565b50939998505050505050505050565b600080600060608486031215610f0757600080fd5b610f1084610e18565b9250602080850151610f2181610c67565b604086015190935067ffffffffffffffff811115610f3e57600080fd5b8501601f81018713610f4f57600080fd5b8051610f5d610b9482610ab9565b81815260059190911b82018301908381019089831115610f7c57600080fd5b928401925b82841015610fa3578351610f9481610c67565b82529284019290840190610f81565b80955050505050509250925092565b600081518084526020808501808196508360051b8101915082860160005b8581101561106857828403895281516040815186528682015191508087870152815115158187015286820151606060018060a01b03808316828a015283850151935060a09250608083818b015261102a60e08b0186610e4a565b928601518a8403603f1901858c01529294506110468584610e4a565b9501511660c09890980197909752505098850198935090840190600101610fd0565b5091979650505050505050565b60208152600082516101606020840152611093610180840182610e4a565b90506020840151601f19808584030160408601526110b18383610e4a565b9250604086015191506110cf60608601836001600160a01b03169052565b60608601519150808584030160808601526110ea8383610e4a565b92506080860151915061110160a086018315159052565b60a0860151915061111760c086018360070b9052565b60c086015180151560e0870152915060e086015191506101008186850301818701526111438484610fb2565b908701518051600790810b61012089015260208201516001600160a01b03166101408901526040820151900b61016088015290935091506111819050565b509392505050565b6000806040838503121561119c57600080fd5b6111a583610e18565b915060208301516111b581610a5a565b809150509250929050565b634e487b7160e01b600052602160045260246000fdfea26469706673582212206bdd56c82f7eb0dd60df8c1485c679e31973d936456f17671c7cffba0b0fce2864736f6c63430008130033",
    "sourcePath": "e:/hts-smart-contract/TokenCreateContract.sol",
    "compiler": {
        "name": "solc",
        "version": "0.8.19+commit.7dd6d404"
    },
    "functionHashes": {
        "createNft(string,string,string,int64,int64)": "b6c907a6",
        "delegateTransferFrom(address,address,address,uint256)": "eac6f3fe",
        "delegateTransferFromNFT(address,address,address,uint256)": "11e1fc07",
        "mintNft(address,bytes[])": "0a284cb6",
        "transferFrom(address,address,address,uint256)": "15dacbea",
        "transferFromNFT(address,address,address,uint256)": "9b23d3d9",
        "transferNft(address,address,int64)": "82b562aa"
    },
    "gasEstimates": {
        "creation": {
            "codeDepositCost": "924000",
            "executionCost": "155731",
            "totalCost": "1079731"
        },
        "external": {
            "createNft(string,string,string,int64,int64)": "infinite",
            "delegateTransferFrom(address,address,address,uint256)": "infinite",
            "delegateTransferFromNFT(address,address,address,uint256)": "infinite",
            "mintNft(address,bytes[])": "infinite",
            "transferFrom(address,address,address,uint256)": "infinite",
            "transferFromNFT(address,address,address,uint256)": "infinite",
            "transferNft(address,address,int64)": "infinite"
        }
    }
}