{
    "contractName": "TokenCreateCustomContract",
    "abi": [
        {
            "anonymous": false,
            "inputs": [
                {
                    "indexed": false,
                    "internalType": "address",
                    "name": "tokenAddress",
                    "type": "address"
                }
            ],
            "name": "CreatedToken",
            "type": "event"
        },
        {
            "anonymous": false,
            "inputs": [
                {
                    "indexed": false,
                    "internalType": "int256",
                    "name": "responseCode",
                    "type": "int256"
                }
            ],
            "name": "ResponseCode",
            "type": "event"
        },
        {
            "inputs": [
                {
                    "internalType": "string",
                    "name": "name",
                    "type": "string"
                },
                {
                    "internalType": "string",
                    "name": "symbol",
                    "type": "string"
                },
                {
                    "internalType": "string",
                    "name": "memo",
                    "type": "string"
                },
                {
                    "internalType": "int64",
                    "name": "initialTotalSupply",
                    "type": "int64"
                },
                {
                    "internalType": "int64",
                    "name": "maxSupply",
                    "type": "int64"
                },
                {
                    "internalType": "int32",
                    "name": "decimals",
                    "type": "int32"
                },
                {
                    "internalType": "bool",
                    "name": "freezeDefaultStatus",
                    "type": "bool"
                },
                {
                    "internalType": "address",
                    "name": "treasury",
                    "type": "address"
                },
                {
                    "internalType": "bytes",
                    "name": "key",
                    "type": "bytes"
                }
            ],
            "name": "createFungibleTokenPublic",
            "outputs": [],
            "stateMutability": "payable",
            "type": "function"
        },
        {
            "inputs": [
                {
                    "internalType": "address",
                    "name": "token",
                    "type": "address"
                },
                {
                    "internalType": "address",
                    "name": "from",
                    "type": "address"
                },
                {
                    "internalType": "address",
                    "name": "to",
                    "type": "address"
                },
                {
                    "internalType": "uint256",
                    "name": "amount",
                    "type": "uint256"
                }
            ],
            "name": "delegateTransferFrom",
            "outputs": [
                {
                    "internalType": "int64",
                    "name": "responseCode",
                    "type": "int64"
                }
            ],
            "stateMutability": "nonpayable",
            "type": "function"
        },
        {
            "inputs": [
                {
                    "internalType": "address",
                    "name": "token",
                    "type": "address"
                },
                {
                    "internalType": "address",
                    "name": "from",
                    "type": "address"
                },
                {
                    "internalType": "address",
                    "name": "to",
                    "type": "address"
                },
                {
                    "internalType": "uint256",
                    "name": "serialNumber",
                    "type": "uint256"
                }
            ],
            "name": "delegateTransferFromNFT",
            "outputs": [
                {
                    "internalType": "int64",
                    "name": "responseCode",
                    "type": "int64"
                }
            ],
            "stateMutability": "nonpayable",
            "type": "function"
        },
        {
            "inputs": [
                {
                    "internalType": "address",
                    "name": "token",
                    "type": "address"
                },
                {
                    "internalType": "address",
                    "name": "from",
                    "type": "address"
                },
                {
                    "internalType": "address",
                    "name": "to",
                    "type": "address"
                },
                {
                    "internalType": "uint256",
                    "name": "amount",
                    "type": "uint256"
                }
            ],
            "name": "transferFrom",
            "outputs": [
                {
                    "internalType": "int64",
                    "name": "responseCode",
                    "type": "int64"
                }
            ],
            "stateMutability": "nonpayable",
            "type": "function"
        },
        {
            "inputs": [
                {
                    "internalType": "address",
                    "name": "token",
                    "type": "address"
                },
                {
                    "internalType": "address",
                    "name": "from",
                    "type": "address"
                },
                {
                    "internalType": "address",
                    "name": "to",
                    "type": "address"
                },
                {
                    "internalType": "uint256",
                    "name": "serialNumber",
                    "type": "uint256"
                }
            ],
            "name": "transferFromNFT",
            "outputs": [
                {
                    "internalType": "int64",
                    "name": "responseCode",
                    "type": "int64"
                }
            ],
            "stateMutability": "nonpayable",
            "type": "function"
        }
    ],
    "bytecode": "608060405234801561001057600080fd5b50600160208181527fa6eef7e35abe7026729641147f7915573c7e97b47efa546f5f6e3230263bcb499190915560027fcc69885fda6bcc1a4ace058b4a62bf5e179ea78fd58a1ccd71c22cc9b688792f5560047fd9d16d34ffb15ba3a3d852f0d403e2ce1d691fb54de27ac87cd2f993f3ec330f5560087f7dfe757ecd65cbd7922a9c0161e935dd7fdbcc0e999689c7d31633896b1fc60b5560107fedc95719e9a3b28dd8e80877cb5880a9be7de1a13fc8b05e7999683b6b567643557fe2689cd4a84e23ad2f564004f1c9013e9589d260bde6380aba3ca7e09e4df40c55600660005260407f8f331abe73332f95a25873e8b430885974c0409691f89d643119a11623a7924a55610d56806101276000396000f3fe60806040526004361061004a5760003560e01c806311e1fc071461004f57806315dacbea146100865780639b23d3d9146100a6578063eac6f3fe146100c6578063f7bddff8146100e6575b600080fd5b34801561005b57600080fd5b5061006f61006a3660046107df565b6100fb565b60405160079190910b815260200160405180910390f35b34801561009257600080fd5b5061006f6100a13660046107df565b6101dc565b3480156100b257600080fd5b5061006f6100c13660046107df565b610287565b3480156100d257600080fd5b5061006f6100e13660046107df565b6102b7565b6100f96100f436600461090f565b6102e7565b005b60008060006101676001600160a01b0316639b23d3d960e01b8888888860405160240161012b9493929190610a10565b60408051601f198184030181529181526020820180516001600160e01b03166001600160e01b03199094169390931790925290516101699190610a5e565b600060405180830381855af49150503d80600081146101a4576040519150601f19603f3d011682016040523d82523d6000602084013e6101a9565b606091505b5091509150816101ba5760156101ce565b808060200190518101906101ce9190610a7a565b60030b979650505050505050565b60008060006101676001600160a01b03166315dacbea60e01b8888888860405160240161020c9493929190610a10565b60408051601f198184030181529181526020820180516001600160e01b03166001600160e01b031990941693909317909252905161024a9190610a5e565b6000604051808303816000865af19150503d80600081146101a4576040519150601f19603f3d011682016040523d82523d6000602084013e6101a9565b60008060006101676001600160a01b0316639b23d3d960e01b8888888860405160240161020c9493929190610a10565b60008060006101676001600160a01b03166315dacbea60e01b8888888860405160240161012b9493929190610a10565b60408051600580825260c08201909252600091816020015b610307610755565b8152602001906001900390816102ff57905050905061032960066003846104e5565b8160008151811061033c5761033c610a9e565b602002602001018190525061035460016003846104e5565b8160018151811061036757610367610a9e565b602002602001018190525061037f60026003846104e5565b8160028151811061039257610392610a9e565b60200260200101819052506103aa60046003846104e5565b816003815181106103bd576103bd610a9e565b60200260200101819052506103d4600380846104e5565b816004815181106103e7576103e7610a9e565b602002602001018190525060006040518060600160405280600060070b8152602001856001600160a01b03168152602001627a120060070b815250905060006040518061012001604052808d81526020018c8152602001866001600160a01b031681526020018b81526020016001151581526020018960070b81526020018715158152602001848152602001838152509050600080610487838c8b61051a565b90925090506016821461049957600080fd5b6040516001600160a01b03821681527f7bb17726df1f3adee8aa00ba8e8bc5d6f182af3bbf77604639cb7f008dd3b4ed9060200160405180910390a15050505050505050505050505050565b6104ed610755565b604051806040016040528061050186610642565b81526020016105108585610681565b9052949350505050565b600080848061010001516000015160070b600014801561054457506101008101516040015160070b155b1561055a576101008101516276a7006040909101525b6000806101676001600160a01b031634630fb65bf360e01b8a8a8a60405160240161058793929190610ba3565b60408051601f198184030181529181526020820180516001600160e01b03166001600160e01b03199094169390931790925290516105c59190610a5e565b60006040518083038185875af1925050503d8060008114610602576040519150601f19603f3d011682016040523d82523d6000602084013e610607565b606091505b50915091508161061a576015600061062e565b8080602001905181019061062e9190610cd0565b60039190910b999098509650505050505050565b60006001600083600681111561065a5761065a610d0a565b600681111561066b5761066b610d0a565b8152602001908152602001600020549050919050565b610689610774565b600083600481111561069d5761069d610d0a565b036106ab576001815261074f565b60018360048111156106bf576106bf610d0a565b036106da576000546001600160a01b0316602082015261074f565b60028360048111156106ee576106ee610d0a565b036106ff576040810182905261074f565b600383600481111561071357610713610d0a565b03610724576060810182905261074f565b600483600481111561073857610738610d0a565b0361074f576000546001600160a01b031660808201525b92915050565b60405180604001604052806000815260200161076f610774565b905290565b6040518060a0016040528060001515815260200160006001600160a01b03168152602001606081526020016060815260200160006001600160a01b031681525090565b6001600160a01b03811681146107cc57600080fd5b50565b80356107da816107b7565b919050565b600080600080608085870312156107f557600080fd5b8435610800816107b7565b93506020850135610810816107b7565b92506040850135610820816107b7565b9396929550929360600135925050565b634e487b7160e01b600052604160045260246000fd5b600082601f83011261085757600080fd5b813567ffffffffffffffff8082111561087257610872610830565b604051601f8301601f19908116603f0116810190828211818310171561089a5761089a610830565b816040528381528660208588010111156108b357600080fd5b836020870160208301376000602085830101528094505050505092915050565b8035600781900b81146107da57600080fd5b8060030b81146107cc57600080fd5b80356107da816108e5565b803580151581146107da57600080fd5b60008060008060008060008060006101208a8c03121561092e57600080fd5b893567ffffffffffffffff8082111561094657600080fd5b6109528d838e01610846565b9a5060208c013591508082111561096857600080fd5b6109748d838e01610846565b995060408c013591508082111561098a57600080fd5b6109968d838e01610846565b98506109a460608d016108d3565b97506109b260808d016108d3565b96506109c060a08d016108f4565b95506109ce60c08d016108ff565b94506109dc60e08d016107cf565b93506101008c01359150808211156109f357600080fd5b50610a008c828d01610846565b9150509295985092959850929598565b6001600160a01b039485168152928416602084015292166040820152606081019190915260800190565b60005b83811015610a55578181015183820152602001610a3d565b50506000910152565b60008251610a70818460208701610a3a565b9190910192915050565b600060208284031215610a8c57600080fd5b8151610a97816108e5565b9392505050565b634e487b7160e01b600052603260045260246000fd5b60008151808452610acc816020860160208601610a3a565b601f01601f19169290920160200192915050565b600081518084526020808501808196508360051b8101915082860160005b85811015610b9657828403895281516040815186528682015191508087870152815115158187015286820151606060018060a01b03808316828a015283850151935060a09250608083818b0152610b5860e08b0186610ab4565b928601518a8403603f1901858c0152929450610b748584610ab4565b9501511660c09890980197909752505098850198935090840190600101610afe565b5091979650505050505050565b6060815260008451610160806060850152610bc26101c0850183610ab4565b91506020870151605f1980868503016080870152610be08483610ab4565b935060408901519150610bfe60a08701836001600160a01b03169052565b60608901519150808685030160c0870152610c198483610ab4565b935060808901519150610c3060e087018315159052565b60a08901519150610100610c488188018460070b9052565b60c08a0151151561012088015260e08a015187860383016101408901529250610c718584610ae0565b9450808a015192505050610cab828601828051600790810b83526020808301516001600160a01b031690840152604091820151900b910152565b5050600785900b60208401529050610cc8604083018460030b9052565b949350505050565b60008060408385031215610ce357600080fd5b8251610cee816108e5565b6020840151909250610cff816107b7565b809150509250929050565b634e487b7160e01b600052602160045260246000fdfea264697066735822122028a38288abdf59e3ccf86fd27bd17092f7487cebef906c2887e3e7b5ab9582d964736f6c63430008130033",
    "sourcePath": "e:/hts-smart-contract/TokenCreateCustom.sol",
    "compiler": {
        "name": "solc",
        "version": "0.8.19+commit.7dd6d404"
    },
    "functionHashes": {
        "createFungibleTokenPublic(string,string,string,int64,int64,int32,bool,address,bytes)": "f7bddff8",
        "delegateTransferFrom(address,address,address,uint256)": "eac6f3fe",
        "delegateTransferFromNFT(address,address,address,uint256)": "11e1fc07",
        "transferFrom(address,address,address,uint256)": "15dacbea",
        "transferFromNFT(address,address,address,uint256)": "9b23d3d9"
    },
    "gasEstimates": {
        "creation": {
            "codeDepositCost": "682800",
            "executionCost": "155484",
            "totalCost": "838284"
        },
        "external": {
            "createFungibleTokenPublic(string,string,string,int64,int64,int32,bool,address,bytes)": "infinite",
            "delegateTransferFrom(address,address,address,uint256)": "infinite",
            "delegateTransferFromNFT(address,address,address,uint256)": "infinite",
            "transferFrom(address,address,address,uint256)": "infinite",
            "transferFromNFT(address,address,address,uint256)": "infinite"
        }
    }
}